:03000000020A19D8
:0C0A1900787FE4F6D8FD758116020A60B3
:100B760001100C011100011200010D00010F00010E
:100B86000B00010E00011500010800010A00010C0E
:070B96000001090001160037
:080B4E008FA0D2B17F017E00EF
:100B5600E4FDFCC3ED9FEC9E5015E4FBFA0BBB00D5
:0F0B6600010AEB64784A70F50DBD00010C80E4C4
:010B7500225D
:0B0BFC00C2B0120B4EC2B10F020B562C
:070BDA007F48120BE17F3D93
:0B0BE100D2B0120B4EC2B10F020B5637
:100B9E007F147E00120B567F38120BFC7F0C120B4B
:100BAE00FC7F06120BFC7F01120BFC7F057E000200
:020BBE000B56D4
:100B1A00FDFF120B3CAF10120BC07F3A120BE1AF74
:100B2A0011120BC07F3A120BE1AF12120BC0E4FD97
:020B3A007F0139
:100B3C00A905EF7005E924808003E924C0FF120B9E
:020B4C00FC2289
:100BC000A907E975F00A842430FF120BE1E975F0FA
:0A0BD0000A84E5F02430FF020BE177
:100BEC00758901758C3C758AB0D2A9D2AFD28C2292
:03000B00020AA541
:100AA500C0E0C0D0758C3C758AB00515E515C394BA
:100AB50014405D751500E50B701E0512E512B43C7A
:100AC500057512000511E511B43C057511000510F9
:100AD500E510B41803751000E50B7011E510B50DA0
:100AE5000CE511B50F07E5127003750E01E509B4A4
:100AF500011E050CE50CB43C05750C00050AE50A5C
:100B0500B43C05750A000508E508B4180375080026
:050B1500D0D0D0E03259
:10080000C2937590FF120B9E120BEC2090237F3247
:100810007E00120B56209019E4F50EC293050BE5ED
:100820000BD394054003E4F50B7F01120BFC3090D1
:10083000FD2091597F327E00120B5620914FE50B1F
:10084000B4010C0510E510C394184003E4F510E55D
:100850000BB4020C0511E511C3943C4003E4F511FF
:10086000E50BB4030C050DE50DC394184003E4F546
:100870000DE50BB4040C050FE50FC3943C4003E4F5
:10088000F50FE50BB405037509013091FD209220A9
:100890007F327E00120B56209216E4F50EC293E5CD
:1008A0000BB40509E4F509F508F50AF50C3092FDDD
:1008B000E50E6054E4120B1A7F53120BE17F5412C1
:1008C0000BE17F4F120BE17F50120BDC7F53120BB9
:1008D000E17F33120BE1E4F513F514D2937F057E2B
:1008E00000120B56C293120B56209208E4F50EC26A
:1008F00093020A0F0514E51470020513C39432E540
:1009000013940040D6020A0FE50B701F120B1A7FDA
:1009100041120BE17F3A120BE1AF0D120BC07F3A8F
:10092000120BE1AF0F120BC0020A0FE50B6401704E
:100930000CFDFF120B3C120BDAAF108042E50B648A
:1009400002700EFDFF120B3C7F4D120BDCAF1180CD
:100950002EE50B64037011FDFF120B3C7F41120B5F
:10096000E1120BDAAF0D8017E50B64047028FDFF70
:10097000120B3C7F41120BE17F4D120BDCAF0F12CB
:100980000B357F53120BE17F31120BE17F2D120BE0
:10099000E17F3E020A0CE50B64057073FDFF120B4C
:1009A0003C7F53120BE17F57120BE17F3A120BE1B0
:1009B000AF08120BC07F3A120BE1AF0A120BC07FD7
:1009C0003A120BE1AF0C120B35E5096401700E7F92
:1009D00052120BE17F55120BE17F4E80117F5312B3
:1009E0000BE17F32120BDC7F47120BE17F4F120BC2
:1009F000E17F20120BE17F53120BE17F33120BDCFE
:100A00007F52120BE17F53120BE17F54120BE17FF7
:090A1000647E00120B5602080B73
:100A2500020800E493A3F8E493A34003F68001F2DF
:100A350008DFF48029E493A3F85407240CC8C333D2
:100A4500C4540F4420C8834004F456800146F6DFA1
:100A5500E4800B0102040810204080900B76E47EB0
:100A6500019360BCA3FF543F30E509541FFEE49396
:100A7500A360010ECF54C025E060A840B8E493A35D
:100A8500FAE493A3F8E493A3C8C582C8CAC583CA88
:100A9500F0A3C8C582C8CAC583CADFE9DEE780BE40
:010B9D000057
:00000001FF
